{
  "contractName": "AuctionStore",
  "abi": [
    {
      "inputs": [],
      "name": "productIndex",
      "outputs": [
        {
          "internalType": "uint256",
          "name": "",
          "type": "uint256"
        }
      ],
      "stateMutability": "view",
      "type": "function",
      "constant": true
    },
    {
      "inputs": [
        {
          "internalType": "string",
          "name": "_name_liuqiang",
          "type": "string"
        },
        {
          "internalType": "string",
          "name": "_category_liuqiang",
          "type": "string"
        },
        {
          "internalType": "string",
          "name": "_imageLink_liuqiang",
          "type": "string"
        },
        {
          "internalType": "string",
          "name": "_descLink_liuqiang",
          "type": "string"
        },
        {
          "internalType": "address",
          "name": "_highestBidder_liuqiang",
          "type": "address"
        },
        {
          "internalType": "uint256",
          "name": "_auctionEndTime_liuqiang",
          "type": "uint256"
        },
        {
          "internalType": "uint256",
          "name": "_startPrice_liuqiang",
          "type": "uint256"
        }
      ],
      "name": "addProductToStore",
      "outputs": [],
      "stateMutability": "nonpayable",
      "type": "function"
    },
    {
      "inputs": [
        {
          "internalType": "uint256",
          "name": "_productId_liuqiang",
          "type": "uint256"
        }
      ],
      "name": "getProduct",
      "outputs": [
        {
          "internalType": "uint256",
          "name": "",
          "type": "uint256"
        },
        {
          "internalType": "string",
          "name": "",
          "type": "string"
        },
        {
          "internalType": "string",
          "name": "",
          "type": "string"
        },
        {
          "internalType": "string",
          "name": "",
          "type": "string"
        },
        {
          "internalType": "string",
          "name": "",
          "type": "string"
        },
        {
          "internalType": "uint256",
          "name": "",
          "type": "uint256"
        },
        {
          "internalType": "uint256",
          "name": "",
          "type": "uint256"
        },
        {
          "internalType": "enum AuctionStore.ProductStatus",
          "name": "",
          "type": "uint8"
        }
      ],
      "stateMutability": "view",
      "type": "function",
      "constant": true
    },
    {
      "inputs": [
        {
          "internalType": "uint256",
          "name": "_productId_liuqiang",
          "type": "uint256"
        },
        {
          "internalType": "string",
          "name": "_bid",
          "type": "string"
        }
      ],
      "name": "bid",
      "outputs": [],
      "stateMutability": "nonpayable",
      "type": "function"
    },
    {
      "inputs": [
        {
          "internalType": "uint256",
          "name": "_productId",
          "type": "uint256"
        },
        {
          "internalType": "string",
          "name": "_amount",
          "type": "string"
        }
      ],
      "name": "revealBid",
      "outputs": [],
      "stateMutability": "payable",
      "type": "function",
      "payable": true
    },
    {
      "inputs": [
        {
          "internalType": "uint256",
          "name": "_productId",
          "type": "uint256"
        }
      ],
      "name": "highestBidderInfo",
      "outputs": [
        {
          "internalType": "address",
          "name": "",
          "type": "address"
        },
        {
          "internalType": "uint256",
          "name": "",
          "type": "uint256"
        },
        {
          "internalType": "uint256",
          "name": "",
          "type": "uint256"
        }
      ],
      "stateMutability": "view",
      "type": "function",
      "constant": true
    },
    {
      "inputs": [
        {
          "internalType": "uint256",
          "name": "_productId",
          "type": "uint256"
        }
      ],
      "name": "totalBids",
      "outputs": [
        {
          "internalType": "uint256",
          "name": "",
          "type": "uint256"
        }
      ],
      "stateMutability": "view",
      "type": "function",
      "constant": true
    }
  ],
  "bytecode": "0x608060405234801561001057600080fd5b50612484806100206000396000f3fe6080604052600436106100705760003560e01c8063b9db15b41161004e578063b9db15b4146100f7578063c897d5a61461013b578063ce818ea914610166578063d1382268146101a557610070565b80630fc55fd1146100755780632163b8c51461009e57806328e3d190146100ba575b600080fd5b34801561008157600080fd5b5061009c60048036038101906100979190611b6f565b6101ce565b005b6100b860048036038101906100b39190611b6f565b6104ff565b005b3480156100c657600080fd5b506100e160048036038101906100dc9190611bcb565b610a69565b6040516100ee9190611c07565b60405180910390f35b34801561010357600080fd5b5061011e60048036038101906101199190611bcb565b610e20565b604051610132989796959493929190611d21565b60405180910390f35b34801561014757600080fd5b50610150611219565b60405161015d9190611c07565b60405180910390f35b34801561017257600080fd5b5061018d60048036038101906101889190611bcb565b61121f565b60405161019c93929190611dfc565b60405180910390f35b3480156101b157600080fd5b506101cc60048036038101906101c79190611e5f565b6115ea565b005b6000600260006001600086815260200190815260200160002060009054906101000a900473ffffffffffffffffffffffffffffffffffffffff1673ffffffffffffffffffffffffffffffffffffffff1673ffffffffffffffffffffffffffffffffffffffff168152602001908152602001600020600084815260200190815260200160002090508060050154426102659190611fa0565b4211156102a7576040517f08c379a000000000000000000000000000000000000000000000000000000000815260040161029e90612042565b60405180910390fd5b80600601546102b583611864565b10156102f6576040517f08c379a00000000000000000000000000000000000000000000000000000000081526004016102ed906120d4565b60405180910390fd5b60008260405160200161030991906120f4565b604051602081830303815290604052805190602001209050600073ffffffffffffffffffffffffffffffffffffffff16600360003373ffffffffffffffffffffffffffffffffffffffff1673ffffffffffffffffffffffffffffffffffffffff168152602001908152602001600020600083815260200190815260200160002060000160009054906101000a900473ffffffffffffffffffffffffffffffffffffffff1673ffffffffffffffffffffffffffffffffffffffff16146103cd57600080fd5b60405180608001604052803373ffffffffffffffffffffffffffffffffffffffff16815260200185815260200161040385611864565b815260200160001515815250600360003373ffffffffffffffffffffffffffffffffffffffff1673ffffffffffffffffffffffffffffffffffffffff168152602001908152602001600020600083815260200190815260200160002060008201518160000160006101000a81548173ffffffffffffffffffffffffffffffffffffffff021916908373ffffffffffffffffffffffffffffffffffffffff160217905550602082015181600101556040820151816002015560608201518160030160006101000a81548160ff021916908315150217905550905050600182600a0160008282546104f29190611fa0565b9250508190555050505050565b6000600260006001600086815260200190815260200160002060009054906101000a900473ffffffffffffffffffffffffffffffffffffffff1673ffffffffffffffffffffffffffffffffffffffff1673ffffffffffffffffffffffffffffffffffffffff168152602001908152602001600020600084815260200190815260200160002090508060050154426105969190611fa0565b4211156105d8576040517f08c379a00000000000000000000000000000000000000000000000000000000081526004016105cf906121ae565b60405180910390fd5b6000826040516020016105eb91906120f4565b6040516020818303038152906040528051906020012090506000600360003373ffffffffffffffffffffffffffffffffffffffff1673ffffffffffffffffffffffffffffffffffffffff16815260200190815260200160002060008381526020019081526020016000206040518060800160405290816000820160009054906101000a900473ffffffffffffffffffffffffffffffffffffffff1673ffffffffffffffffffffffffffffffffffffffff1673ffffffffffffffffffffffffffffffffffffffff16815260200160018201548152602001600282015481526020016003820160009054906101000a900460ff1615151515815250509050600073ffffffffffffffffffffffffffffffffffffffff16816000015173ffffffffffffffffffffffffffffffffffffffff161161075a576040517f08c379a00000000000000000000000000000000000000000000000000000000081526004016107519061221a565b60405180910390fd5b6000151581606001511515146107a5576040517f08c379a000000000000000000000000000000000000000000000000000000000815260040161079c90612286565b60405180910390fd5b6000806107b186611864565b905080836040015110156107cb5782604001519150610a60565b600073ffffffffffffffffffffffffffffffffffffffff168560070160009054906101000a900473ffffffffffffffffffffffffffffffffffffffff1673ffffffffffffffffffffffffffffffffffffffff16141561089457338560070160006101000a81548173ffffffffffffffffffffffffffffffffffffffff021916908373ffffffffffffffffffffffffffffffffffffffff1602179055508085600801819055508460060154856009018190555080836040015161088d91906122a6565b91506109a2565b846008015481111561097f57846008015485600901819055508460070160009054906101000a900473ffffffffffffffffffffffffffffffffffffffff1673ffffffffffffffffffffffffffffffffffffffff166108fc86600801549081150290604051600060405180830381858888f1935050505015801561091b573d6000803e3d6000fd5b50338560070160006101000a81548173ffffffffffffffffffffffffffffffffffffffff021916908373ffffffffffffffffffffffffffffffffffffffff16021790555080856008018190555080836040015161097891906122a6565b91506109a1565b846009015481111561099c578085600901819055508091506109a0565b8091505b5b5b6000821115610a5f573373ffffffffffffffffffffffffffffffffffffffff166108fc839081150290604051600060405180830381858888f193505050501580156109f1573d6000803e3d6000fd5b506001600360003373ffffffffffffffffffffffffffffffffffffffff1673ffffffffffffffffffffffffffffffffffffffff168152602001908152602001600020600086815260200190815260200160002060030160006101000a81548160ff0219169083151502179055505b5b50505050505050565b600080600260006001600086815260200190815260200160002060009054906101000a900473ffffffffffffffffffffffffffffffffffffffff1673ffffffffffffffffffffffffffffffffffffffff1673ffffffffffffffffffffffffffffffffffffffff16815260200190815260200160002060008481526020019081526020016000206040518061018001604052908160008201548152602001600182018054610b1590612309565b80601f0160208091040260200160405190810160405280929190818152602001828054610b4190612309565b8015610b8e5780601f10610b6357610100808354040283529160200191610b8e565b820191906000526020600020905b815481529060010190602001808311610b7157829003601f168201915b50505050508152602001600282018054610ba790612309565b80601f0160208091040260200160405190810160405280929190818152602001828054610bd390612309565b8015610c205780601f10610bf557610100808354040283529160200191610c20565b820191906000526020600020905b815481529060010190602001808311610c0357829003601f168201915b50505050508152602001600382018054610c3990612309565b80601f0160208091040260200160405190810160405280929190818152602001828054610c6590612309565b8015610cb25780601f10610c8757610100808354040283529160200191610cb2565b820191906000526020600020905b815481529060010190602001808311610c9557829003601f168201915b50505050508152602001600482018054610ccb90612309565b80601f0160208091040260200160405190810160405280929190818152602001828054610cf790612309565b8015610d445780601f10610d1957610100808354040283529160200191610d44565b820191906000526020600020905b815481529060010190602001808311610d2757829003601f168201915b5050505050815260200160058201548152602001600682015481526020016007820160009054906101000a900473ffffffffffffffffffffffffffffffffffffffff1673ffffffffffffffffffffffffffffffffffffffff1673ffffffffffffffffffffffffffffffffffffffff1681526020016008820154815260200160098201548152602001600a8201548152602001600b820160009054906101000a900460ff166002811115610dfa57610df9611caa565b5b6002811115610e0c57610e0b611caa565b5b815250509050806101400151915050919050565b600060608060608060008060008060026000600160008d815260200190815260200160002060009054906101000a900473ffffffffffffffffffffffffffffffffffffffff1673ffffffffffffffffffffffffffffffffffffffff1673ffffffffffffffffffffffffffffffffffffffff16815260200190815260200160002060008b81526020019081526020016000206040518061018001604052908160008201548152602001600182018054610ed790612309565b80601f0160208091040260200160405190810160405280929190818152602001828054610f0390612309565b8015610f505780601f10610f2557610100808354040283529160200191610f50565b820191906000526020600020905b815481529060010190602001808311610f3357829003601f168201915b50505050508152602001600282018054610f6990612309565b80601f0160208091040260200160405190810160405280929190818152602001828054610f9590612309565b8015610fe25780601f10610fb757610100808354040283529160200191610fe2565b820191906000526020600020905b815481529060010190602001808311610fc557829003601f168201915b50505050508152602001600382018054610ffb90612309565b80601f016020809104026020016040519081016040528092919081815260200182805461102790612309565b80156110745780601f1061104957610100808354040283529160200191611074565b820191906000526020600020905b81548152906001019060200180831161105757829003601f168201915b5050505050815260200160048201805461108d90612309565b80601f01602080910402602001604051908101604052809291908181526020018280546110b990612309565b80156111065780601f106110db57610100808354040283529160200191611106565b820191906000526020600020905b8154815290600101906020018083116110e957829003601f168201915b5050505050815260200160058201548152602001600682015481526020016007820160009054906101000a900473ffffffffffffffffffffffffffffffffffffffff1673ffffffffffffffffffffffffffffffffffffffff1673ffffffffffffffffffffffffffffffffffffffff1681526020016008820154815260200160098201548152602001600a8201548152602001600b820160009054906101000a900460ff1660028111156111bc576111bb611caa565b5b60028111156111ce576111cd611caa565b5b815250509050806000015181602001518260400151836060015184608001518560a001518660c001518761016001519850985098509850985098509850985050919395975091939597565b60005481565b600080600080600260006001600088815260200190815260200160002060009054906101000a900473ffffffffffffffffffffffffffffffffffffffff1673ffffffffffffffffffffffffffffffffffffffff1673ffffffffffffffffffffffffffffffffffffffff168152602001908152602001600020600086815260200190815260200160002060405180610180016040529081600082015481526020016001820180546112ce90612309565b80601f01602080910402602001604051908101604052809291908181526020018280546112fa90612309565b80156113475780601f1061131c57610100808354040283529160200191611347565b820191906000526020600020905b81548152906001019060200180831161132a57829003601f168201915b5050505050815260200160028201805461136090612309565b80601f016020809104026020016040519081016040528092919081815260200182805461138c90612309565b80156113d95780601f106113ae576101008083540402835291602001916113d9565b820191906000526020600020905b8154815290600101906020018083116113bc57829003601f168201915b505050505081526020016003820180546113f290612309565b80601f016020809104026020016040519081016040528092919081815260200182805461141e90612309565b801561146b5780601f106114405761010080835404028352916020019161146b565b820191906000526020600020905b81548152906001019060200180831161144e57829003601f168201915b5050505050815260200160048201805461148490612309565b80601f01602080910402602001604051908101604052809291908181526020018280546114b090612309565b80156114fd5780601f106114d2576101008083540402835291602001916114fd565b820191906000526020600020905b8154815290600101906020018083116114e057829003601f168201915b5050505050815260200160058201548152602001600682015481526020016007820160009054906101000a900473ffffffffffffffffffffffffffffffffffffffff1673ffffffffffffffffffffffffffffffffffffffff1673ffffffffffffffffffffffffffffffffffffffff1681526020016008820154815260200160098201548152602001600a8201548152602001600b820160009054906101000a900460ff1660028111156115b3576115b2611caa565b5b60028111156115c5576115c4611caa565b5b8152505090508060e00151816101000151826101200151935093509350509193909250565b60016000808282546115fc9190611fa0565b92505081905550600060405180610180016040528060005481526020018981526020018881526020018781526020018681526020018481526020018381526020018573ffffffffffffffffffffffffffffffffffffffff1681526020016000815260200160008152602001600081526020016000600281111561168257611681611caa565b5b815250905080600260003373ffffffffffffffffffffffffffffffffffffffff1673ffffffffffffffffffffffffffffffffffffffff1681526020019081526020016000206000805481526020019081526020016000206000820151816000015560208201518160010190805190602001906116ff92919061193c565b50604082015181600201908051906020019061171c92919061193c565b50606082015181600301908051906020019061173992919061193c565b50608082015181600401908051906020019061175692919061193c565b5060a0820151816005015560c0820151816006015560e08201518160070160006101000a81548173ffffffffffffffffffffffffffffffffffffffff021916908373ffffffffffffffffffffffffffffffffffffffff1602179055506101008201518160080155610120820151816009015561014082015181600a015561016082015181600b0160006101000a81548160ff021916908360028111156117ff576117fe611caa565b5b021790555090505033600160008054815260200190815260200160002060006101000a81548173ffffffffffffffffffffffffffffffffffffffff021916908373ffffffffffffffffffffffffffffffffffffffff1602179055505050505050505050565b6000808290506000805b825181101561193157603083828151811061188c5761188b61233b565b5b602001015160f81c60f81b60f81c60ff16101580156118cf575060398382815181106118bb576118ba61233b565b5b602001015160f81c60f81b60f81c60ff1611155b1561191e5760308382815181106118e9576118e861233b565b5b602001015160f81c60f81b60f81c6119019190612377565b60ff16600a8361191191906123ab565b61191b9190611fa0565b91505b808061192990612405565b91505061186e565b508092505050919050565b82805461194890612309565b90600052602060002090601f01602090048101928261196a57600085556119b1565b82601f1061198357805160ff19168380011785556119b1565b828001600101855582156119b1579182015b828111156119b0578251825591602001919060010190611995565b5b5090506119be91906119c2565b5090565b5b808211156119db5760008160009055506001016119c3565b5090565b6000604051905090565b600080fd5b600080fd5b6000819050919050565b611a06816119f3565b8114611a1157600080fd5b50565b600081359050611a23816119fd565b92915050565b600080fd5b600080fd5b6000601f19601f8301169050919050565b7f4e487b7100000000000000000000000000000000000000000000000000000000600052604160045260246000fd5b611a7c82611a33565b810181811067ffffffffffffffff82111715611a9b57611a9a611a44565b5b80604052505050565b6000611aae6119df565b9050611aba8282611a73565b919050565b600067ffffffffffffffff821115611ada57611ad9611a44565b5b611ae382611a33565b9050602081019050919050565b82818337600083830152505050565b6000611b12611b0d84611abf565b611aa4565b905082815260208101848484011115611b2e57611b2d611a2e565b5b611b39848285611af0565b509392505050565b600082601f830112611b5657611b55611a29565b5b8135611b66848260208601611aff565b91505092915050565b60008060408385031215611b8657611b856119e9565b5b6000611b9485828601611a14565b925050602083013567ffffffffffffffff811115611bb557611bb46119ee565b5b611bc185828601611b41565b9150509250929050565b600060208284031215611be157611be06119e9565b5b6000611bef84828501611a14565b91505092915050565b611c01816119f3565b82525050565b6000602082019050611c1c6000830184611bf8565b92915050565b600081519050919050565b600082825260208201905092915050565b60005b83811015611c5c578082015181840152602081019050611c41565b83811115611c6b576000848401525b50505050565b6000611c7c82611c22565b611c868185611c2d565b9350611c96818560208601611c3e565b611c9f81611a33565b840191505092915050565b7f4e487b7100000000000000000000000000000000000000000000000000000000600052602160045260246000fd5b60038110611cea57611ce9611caa565b5b50565b6000819050611cfb82611cd9565b919050565b6000611d0b82611ced565b9050919050565b611d1b81611d00565b82525050565b600061010082019050611d37600083018b611bf8565b8181036020830152611d49818a611c71565b90508181036040830152611d5d8189611c71565b90508181036060830152611d718188611c71565b90508181036080830152611d858187611c71565b9050611d9460a0830186611bf8565b611da160c0830185611bf8565b611dae60e0830184611d12565b9998505050505050505050565b600073ffffffffffffffffffffffffffffffffffffffff82169050919050565b6000611de682611dbb565b9050919050565b611df681611ddb565b82525050565b6000606082019050611e116000830186611ded565b611e1e6020830185611bf8565b611e2b6040830184611bf8565b949350505050565b611e3c81611ddb565b8114611e4757600080fd5b50565b600081359050611e5981611e33565b92915050565b600080600080600080600060e0888a031215611e7e57611e7d6119e9565b5b600088013567ffffffffffffffff811115611e9c57611e9b6119ee565b5b611ea88a828b01611b41565b975050602088013567ffffffffffffffff811115611ec957611ec86119ee565b5b611ed58a828b01611b41565b965050604088013567ffffffffffffffff811115611ef657611ef56119ee565b5b611f028a828b01611b41565b955050606088013567ffffffffffffffff811115611f2357611f226119ee565b5b611f2f8a828b01611b41565b9450506080611f408a828b01611e4a565b93505060a0611f518a828b01611a14565b92505060c0611f628a828b01611a14565b91505092959891949750929550565b7f4e487b7100000000000000000000000000000000000000000000000000000000600052601160045260246000fd5b6000611fab826119f3565b9150611fb6836119f3565b9250827fffffffffffffffffffffffffffffffffffffffffffffffffffffffffffffffff03821115611feb57611fea611f71565b5b828201905092915050565b7f546865206d65726368616e646973652061756374696f6e206973206f76657200600082015250565b600061202c601f83611c2d565b915061203782611ff6565b602082019050919050565b6000602082019050818103600083015261205b8161201f565b9050919050565b7f54686520736574207669727475616c2070726963652063616e6e6f742062652060008201527f6c6f776572207468616e2074686520626964206f70656e696e67207072696365602082015250565b60006120be604083611c2d565b91506120c982612062565b604082019050919050565b600060208201905081810360008301526120ed816120b1565b9050919050565b6000602082019050818103600083015261210e8184611c71565b905092915050565b7f5468652062696464696e67206973206e6f742066696e6973686564207965742c60008201527f20616e642074686520707269636520616e6e6f756e63656d656e742074696d6560208201527f206973206e6f742079657420617661696c61626c650000000000000000000000604082015250565b6000612198605583611c2d565b91506121a382612116565b606082019050919050565b600060208201905081810360008301526121c78161218b565b9050919050565b7f57616c6c6574206164647265737320646f6573206e6f74206578697374000000600082015250565b6000612204601d83611c2d565b915061220f826121ce565b602082019050919050565b60006020820190508181036000830152612233816121f7565b9050919050565b7f616c7265616479206f7665720000000000000000000000000000000000000000600082015250565b6000612270600c83611c2d565b915061227b8261223a565b602082019050919050565b6000602082019050818103600083015261229f81612263565b9050919050565b60006122b1826119f3565b91506122bc836119f3565b9250828210156122cf576122ce611f71565b5b828203905092915050565b7f4e487b7100000000000000000000000000000000000000000000000000000000600052602260045260246000fd5b6000600282049050600182168061232157607f821691505b60208210811415612335576123346122da565b5b50919050565b7f4e487b7100000000000000000000000000000000000000000000000000000000600052603260045260246000fd5b600060ff82169050919050565b60006123828261236a565b915061238d8361236a565b9250828210156123a05761239f611f71565b5b828203905092915050565b60006123b6826119f3565b91506123c1836119f3565b9250817fffffffffffffffffffffffffffffffffffffffffffffffffffffffffffffffff04831182151516156123fa576123f9611f71565b5b828202905092915050565b6000612410826119f3565b91507fffffffffffffffffffffffffffffffffffffffffffffffffffffffffffffffff82141561244357612442611f71565b5b60018201905091905056fea2646970667358221220940e84493a58d22789e4787c07fe9a7d9bec22168fc28ae6a04a0c8787c00ebd64736f6c634300080a0033",
  "immutableReferences": {},
  "source": "// SPDX-License-Identifier: UNLICENSED\r\npragma solidity ^0.8.10;\r\n\r\n//AuctionStore\r\ncontract AuctionStore {\r\n    //ProductStatus\r\n    enum ProductStatus {\r\n        Open_liuqiang, //\r\n        Sold_liuqiang, //,\r\n        Unsold_liuqiang //\r\n    }\r\n\r\n    // ID\r\n    uint256 public productIndex;\r\n\r\n    //Id\r\n    mapping(uint256 => address) productIdInStore;\r\n\r\n    // \r\n    mapping(address => mapping(uint256 => Product)) stores;\r\n\r\n    //\r\n    struct Bid {\r\n        address bidder_liuqiang;\r\n        uint256 productId_liuqiang;\r\n        uint256 value_liuqiang;\r\n        bool revealed_liuqiang; //\r\n    }\r\n\r\n    //\r\n    struct Product {\r\n        uint256 id_liuqiang; //id\r\n        string name_liuqiang; //\r\n        string category_liuqiang; //\r\n        string imageLink_liuqiang; //Hash\r\n        string descLink_liuqiang; // Hash\r\n        uint256 auctionEndTime_liuqiang; //\r\n        uint256 startPrice_liuqiang; //\r\n        address highestBidder_liuqiang; //\r\n        uint256 highestBid_liuqiang; //\r\n        uint256 secondHighestBid_liuqiang; //\r\n        uint256 totalBids_liuqiang;\r\n        //\r\n        ProductStatus status_liuqiang; //\r\n        // (address => mapping(bytes32 => Bid)) bids;// \r\n    }\r\n    //mapping(address => uint) public bids;\r\n    mapping(address => mapping(bytes32 => Bid)) bids; // \r\n\r\n    //             \r\n    function addProductToStore(\r\n        string memory _name_liuqiang,\r\n        string memory _category_liuqiang,\r\n        string memory _imageLink_liuqiang,\r\n        string memory _descLink_liuqiang,\r\n        address _highestBidder_liuqiang,\r\n        uint256 _auctionEndTime_liuqiang,\r\n        uint256 _startPrice_liuqiang\r\n    ) public {\r\n        //ID\r\n        productIndex += 1;\r\n        //product\r\n        Product memory product = Product(\r\n            productIndex,\r\n            _name_liuqiang,\r\n            _category_liuqiang,\r\n            _imageLink_liuqiang,\r\n            _descLink_liuqiang,\r\n            _auctionEndTime_liuqiang,\r\n            _startPrice_liuqiang,\r\n            _highestBidder_liuqiang,\r\n            0,\r\n            0,\r\n            0,\r\n            ProductStatus.Open_liuqiang\r\n        );\r\n        stores[msg.sender][productIndex] = product; //stores\r\n        productIdInStore[productIndex] = msg.sender;\r\n    }\r\n\r\n    //ID\r\n    function getProduct(uint256 _productId_liuqiang)\r\n        public\r\n        view\r\n        returns (\r\n            uint256,\r\n            string memory,\r\n            string memory,\r\n            string memory,\r\n            string memory,\r\n            uint256,\r\n            uint256,\r\n            ProductStatus\r\n        )\r\n    {\r\n        Product memory product = stores[productIdInStore[_productId_liuqiang]][\r\n            _productId_liuqiang\r\n        ];\r\n        return (\r\n            product.id_liuqiang,\r\n            product.name_liuqiang,\r\n            product.category_liuqiang,\r\n            product.imageLink_liuqiang,\r\n            product.descLink_liuqiang,\r\n            product.auctionEndTime_liuqiang,\r\n            product.startPrice_liuqiang,\r\n            product.status_liuqiang\r\n        );\r\n    }\r\n\r\n    //,Id,Payable\r\n    function bid(uint256 _productId_liuqiang, string memory _bid) public {\r\n        Product storage product = stores[productIdInStore[_productId_liuqiang]][\r\n            _productId_liuqiang\r\n        ];\r\n        //\r\n        require(\r\n            block.timestamp <=\r\n                block.timestamp + product.auctionEndTime_liuqiang,\r\n            \"The merchandise auction is over\"\r\n        );\r\n        //\r\n        require(\r\n            stringToUint(_bid) >= product.startPrice_liuqiang,\r\n            \"The set virtual price cannot be lower than the bid opening price\"\r\n        );\r\n        //\r\n        bytes32 bid1 = keccak256(abi.encode(_bid));\r\n        require(bids[msg.sender][bid1].bidder_liuqiang == address(0)); //bid\r\n        //\r\n        bids[msg.sender][bid1] = Bid(\r\n            msg.sender,\r\n            _productId_liuqiang,\r\n            stringToUint(_bid),\r\n            false\r\n        );\r\n        //\r\n        product.totalBids_liuqiang += 1;\r\n    }\r\n\r\n    //\r\n    function revealBid(uint256 _productId, string memory _amount)\r\n        public\r\n        payable\r\n    {\r\n        //ID\r\n        Product storage product = stores[productIdInStore[_productId]][\r\n            _productId\r\n        ];\r\n        //s\r\n        require(\r\n            block.timestamp <=\r\n                block.timestamp + product.auctionEndTime_liuqiang,\r\n            \"The bidding is not finished yet, and the price announcement time is not yet available\"\r\n        );\r\n        // \r\n        bytes32 sealedBid = keccak256(abi.encode(_amount));\r\n        //\r\n        Bid memory bidInfo = bids[msg.sender][sealedBid];\r\n        //0x4333  uint160\r\n        require(\r\n            bidInfo.bidder_liuqiang > address(0),\r\n            \"Wallet address does not exist\"\r\n        );\r\n        //\r\n        require(bidInfo.revealed_liuqiang == false, \"already over\");\r\n        // \r\n        uint256 refund;\r\n        uint256 amount = stringToUint(_amount);\r\n        // bidInfo.value  mask bid\r\n\r\n        if (bidInfo.value_liuqiang < amount) {\r\n            //bidInfo.value< \r\n            refund = bidInfo.value_liuqiang;\r\n        } else {\r\n            //\r\n            if (address(product.highestBidder_liuqiang) == address(0)) {\r\n                //0\r\n                //\r\n                product.highestBidder_liuqiang = msg.sender;\r\n                //\r\n                product.highestBid_liuqiang = amount;\r\n                //\r\n                product.secondHighestBid_liuqiang = product.startPrice_liuqiang;\r\n                //bidInfo.value = 20,amount = 12,8\r\n                refund = bidInfo.value_liuqiang - amount;\r\n            } else {\r\n                //\r\n                // amount = 15 , bidInfo.value = 25,amount > 12\r\n                if (amount > product.highestBid_liuqiang) {\r\n                    //   \r\n                    product.secondHighestBid_liuqiang = product\r\n                        .highestBid_liuqiang;\r\n                    // \r\n                    payable(product.highestBidder_liuqiang).transfer(\r\n                        product.highestBid_liuqiang\r\n                    );\r\n                    // \r\n                    product.highestBidder_liuqiang = msg.sender;\r\n                    // 15\r\n                    product.highestBid_liuqiang = amount;\r\n                    //  20 - 15 = 5\r\n                    refund = bidInfo.value_liuqiang - amount;\r\n                } else if (amount > product.secondHighestBid_liuqiang) {\r\n                    //\r\n                    product.secondHighestBid_liuqiang = amount;\r\n                    //\r\n                    refund = amount;\r\n                } else {\r\n                    //\r\n                    refund = amount;\r\n                }\r\n            }\r\n\r\n            if (refund > 0) {\r\n                //\r\n                payable(msg.sender).transfer(refund);\r\n                bids[msg.sender][sealedBid].revealed_liuqiang = true;\r\n            }\r\n        }\r\n    }\r\n\r\n    //\r\n    //1. \r\n    function highestBidderInfo(uint256 _productId)\r\n        public\r\n        view\r\n        returns (\r\n            address,\r\n            uint256,\r\n            uint256\r\n        )\r\n    {\r\n        Product memory product = stores[productIdInStore[_productId]][\r\n            _productId\r\n        ];\r\n        return (\r\n            product.highestBidder_liuqiang,\r\n            product.highestBid_liuqiang,\r\n            product.secondHighestBid_liuqiang\r\n        );\r\n    }\r\n\r\n    //2. \r\n    function totalBids(uint256 _productId) public view returns (uint256) {\r\n        Product memory product = stores[productIdInStore[_productId]][\r\n            _productId\r\n        ];\r\n        return product.totalBids_liuqiang;\r\n    }\r\n\r\n    //3. stringuint\r\n    function stringToUint(string memory s) private pure returns (uint256) {\r\n        bytes memory b = bytes(s);\r\n        uint256 result = 0;\r\n        for (uint256 i = 0; i < b.length; i++) {\r\n            if (uint8(b[i]) >= 48 && uint8(b[i]) <= 57) {\r\n                result = result * 10 + (uint8(b[i]) - 48);\r\n            }\r\n        }\r\n\r\n        return result;\r\n    }\r\n}\r\n",
  "sourcePath": "D:\\study\\qukuailian\\remix\\truffle\\contracts\\Auction.sol",
  "compiler": {
    "name": "solc",
    "version": "0.8.10+commit.fc410830.Emscripten.clang"
  },
  "schemaVersion": "3.4.3",
  "updatedAt": "2021-12-17T08:47:42.571Z",
  "networkType": "ethereum",
  "devdoc": {
    "kind": "dev",
    "methods": {},
    "version": 1
  },
  "userdoc": {
    "kind": "user",
    "methods": {},
    "version": 1
  }
}